:020000040800F2
:1000000000280020DD0100082D0200082D02000854
:100010002D0200082D0200082D020008000000003B
:100020000000000000000000000000002D02000899
:100030002D020008000000002D0200082D0200081B
:100040002D0200082D0200082D0200082D020008D4
:100050002D0200082D0200082D0200082D020008C4
:100060002D0200082D0200082D0200082D020008B4
:100070002D0200082D0200082D0200082D020008A4
:100080002D0200082D0200082D0200082D02000894
:100090002D0200082D0200082D0200082D02000884
:1000A0002D0200082D0200082D0200082D02000874
:1000B0002D0200082D0200082D0200082D02000864
:1000C0002D0200082D0200082D0200082D02000854
:1000D0002D0200082D0200082D0200082D02000844
:1000E0002D0200082D020008000000002D0200086B
:1000F0002D0200082D0200082D0200082D02000824
:100100002D0200082D0200082D0200082D02000813
:100110002D0200082D0200082D0200082D02000803
:100120002D0200082D0200082D0200082D020008F3
:1001300010B5054C237833B9044B13B10448AFF321
:1001400000800123237010BD00000020000000008B
:100150007802000808B5034B1BB103490348AFF30D
:10016000008008BD000000000400002078020008A4
:1001700080B483B000AF164B04221A60154B1B6885
:10018000144A23F470031360124B1B68114A43F4A2
:100190000013136000237B6002E07B6801337B6007
:1001A0007B684CF24F329342F7DD0B4B4FF4005219
:1001B0001A6000237B6002E07B6801337B607B6810
:1001C0004CF24F329342F7DD034B00221A60E1E715
:1001D00018100240040801400C0801400D488546F3
:1001E000AFF300800C480D490D4A002302E0D458BB
:1001F000C4500433C4188C42F9D30A4A0A4C002371
:1002000001E013600432A242FBD300F011F8FFF7C3
:10021000AFFFFEE7002800200000002000000020C3
:1002200098020008000000201C000020FEE70000EB
:1002300070B500260C4D0D4C641BA410A64209D1CC
:1002400000F01AF800260A4D0A4C641BA410A642BE
:1002500005D170BD55F8043B98470136EEE755F8D7
:10026000043B98470136F2E790020008900200082C
:100270009002000894020008F8B500BFF8BC08BC62
:100280009E467047F8B500BFF8BC08BC9E46704754
:04029000550100080C
:04029400310100082C
:04000005080001DD11
:00000001FF
