:020000040800F2
:1000000000280020F1010008410200084102000818
:1000100041020008410200084102000800000000FF
:100020000000000000000000000000004102000885
:1000300041020008000000004102000841020008DF
:100040004102000841020008410200084102000884
:100050004102000841020008410200084102000874
:100060004102000841020008410200084102000864
:100070004102000841020008410200084102000854
:100080004102000841020008410200084102000844
:100090004102000841020008410200084102000834
:1000A0004102000841020008410200084102000824
:1000B0004102000841020008410200084102000814
:1000C0004102000841020008410200084102000804
:1000D00041020008410200084102000841020008F4
:1000E000410200084102000800000000410200082F
:1000F00041020008410200084102000841020008D4
:1001000041020008410200084102000841020008C3
:1001100041020008410200084102000841020008B3
:1001200041020008410200084102000841020008A3
:1001300010B5054C237833B9044B13B10448AFF321
:1001400000800123237010BD080000200000000083
:100150008C02000808B5034B1BB103490348AFF3F9
:10016000008008BD000000000C0000208C02000888
:1001700080B483B000AF1B4B1A68137843F00403BC
:100180001370194B1B68184A23F470031360164B45
:100190001B68154A43F40013136000237B6000239F
:1001A0007B6002E07B6801337B607B684CF24F32FE
:1001B0009342F7DD0D4B1A68537843F020035370D8
:1001C00000237B6002E07B6801337B607B684CF23C
:1001D0004F329342F7DD054B1A6853786FF345139E
:1001E0005370DCE7000000200408014004000020F8
:1001F0000D488546AFF300800C480D490D4A002399
:1002000002E0D458C4500433C4188C42F9D30A4ACB
:100210000A4C002301E013600432A242FBD300F039
:1002200011F8FFF7A5FFFEE70028002000000020DE
:1002300008000020AC020008080000202400002074
:10024000FEE7000070B500260C4D0D4C641BA41099
:10025000A64209D100F01AF800260A4D0A4C641B88
:10026000A410A64205D170BD55F8043B984701364D
:10027000EEE755F8043B98470136F2E7A402000880
:10028000A4020008A4020008A8020008F8B500BFF4
:10029000F8BC08BC9E467047F8B500BFF8BC08BC67
:0402A0009E467047BF
:0402A40055010008F8
:0402A8003101000818
:0802AC00181002400C0801408B
:04000005080001F1FD
:00000001FF
